:020000040800F2
:1000000000200010DDFC000805FC000807FC0008CB
:1000100009FC00080BFC00080DFC000800000000B3
:100020000000000000000000000000009DC3000868
:100030000FFC00080000000045C3000811FC000888
:1000400019FD00081DFD000821FD000825FD000820
:1000500029FD00082DFD000831FD000835FD0008D0
:1000600039FD00083DFD000841FD000845FD000880
:1000700049FD00084DFD000851FD000855FD000830
:1000800059FD00085DFD000861FD000865FD0008E0
:1000900069FD00086DFD000871FD000815FC0008F1
:1000A00075FD000879FD00087DFD000881FD000850
:1000B00085FD000889FD00088DFD000891FD000800
:1000C00095FD000899FD00089DFD0008A1FD0008B0
:1000D000A5FD0008A9FD0008ADFD0008B1FD000860
:1000E000B5FD0008B9FD0008BDFD0008C1FD000810
:1000F000C5FD0008C9FD0008CDFD0008D1FD0008C0
:10010000D5FD0008D9FD0008DDFD0008E1FD00086F
:10011000E5FD0008E9FD0008B7E10008EDFD000875
:10012000F1FD0008F5FD0008F9FD0008FDFD0008DF
:1001300001FE00081DFC000805FE000809FE00087D
:100140000DFE000811FE000815FE000819FE00084B
:100150001DFE000821FE000825FE000829FE0008FB
:100160002DFE000831FE000835FE000839FE0008AB
:100170003DFE000841FE000845FE000800000000AA
:1001800049FE00084DFE000851FE000855FE00081B
:1001900059FE00085DFE000861FE000865FE0008CB
:1001A00069FE00086DFE000871FE000838B5DFF832
:1001B000484A2079D8B902F066FBA06010B94FF028
:1001C000FF3032BD017ADFF8AC5C41F020010172F2
:1001D0004422294602F07AFAA0684322294602F016
:1001E000FFFAA068DFF8901C00228161C2612079CB
:1001F000401C2071002032BD10B5DFF8FC49207989
:10020000401E2071C0B220B9A06802F028FB002176
:10021000A16010BD38B5054605F124000468437C93
:10022000027C0FF24C00294602F086FD617A082913
:1002300004D0082060720020A072E082002204F145
:100240002801284602F0B9FF18B10FF2400002F071
:1002500073FDA07AFF281CBF401CA0720120E08221
:100260004FF4FA71BDE834400FF24C0002F064BD67
:10027000646863705F636865636B286E6574696644
:100280003D25702920256325630A0000646863709A
:100290005F636865636B3A20636F756C64206E6F93
:1002A0007420706572666F726D20415250207175B6
:1002B0006572790A00000000646863705F636865B6
:1002C000636B28293A2073657420726571756573B4
:1002D000742074696D656F757420256875206D7361
:1002E0006563730A00000000F0B5054605F13400AF
:1002F00083B06C6A81780091437802780FF28C1099
:10030000294602F019FD617A012904D001206072AA
:100310000020A072E08203222146284601F054FC0E
:10032000060040F08E80A08A2269DFF8CC78411C5C
:10033000A1821044392180F8F010A08A2269411C62
:10034000A1821044022180F8F0102046698D01F04E
:10035000D9F9A08A2269411CA1821044322180F877
:10036000F010A08A2269411CA1821044042180F867
:10037000F010A06A02F0E8FF0146204601F0C9F93A
:10038000A08A2269411CA1821044362180F8F01015
:10039000A08A2269411CA1821044042180F8F01037
:1003A000606A02F0D1FF0146204601F0B2F9A08A4E
:1003B0002269411CA1821044372180F8F010A08AE4
:1003C0002269411CA1821044042180F8F010A18A06
:1003D00038784A1CA2822269114481F8F000A18A6F
:1003E00078784A1CA2822269114481F8F000A18A1F
:1003F000B8784A1CA2822269114481F8F000A18ACF
:10040000F8784A1CA2822269114481F8F000204643
:1004100001F0A3FCA18AE068F03189B203F086F80C
:10042000DFF8500A01900095E168B868DFF84C2ABF
:10043000432302F0B7F8204601F084FC0FF26C0071
:1004400001E00FF2840002F077FCA07AFF280CD0C4
:10045000401CA072C0B2062807DA012101FA00F0A0
:100460004FF47A7110FB01F101E04EF6602189B280
:1004700001F2F310DFF8A02C80FB0232521102EBE4
:10048000D272E2820FF2700000F0EFBC6468637019
:100490005F73656C656374286E657469663D25706D
:1004A0002920256325632568750A00006468637048
:1004B0005F73656C6563743A2052455155455354DA
:1004C000494E470A00000000646863705F73656C02
:1004D0006563743A20636F756C64206E6F7420617D
:1004E0006C6C6F6361746520444843502072657181
:1004F000756573740A000000646863705F73656CEF
:1005000065637428293A2073657420726571756576
:1005100073742074696D656F757420256875206D1E
:10052000736563730A0000002DE9F84FDFF8EC1BD8
:100530000FF2EC000C680FF2FC050FF20C160FF234
:10054000281B0FF244180FF254190FF2701A02F020
:10055000F3FB49E0818B002945D04A1E828342D1BA
:10056000304602F0E9FB676A284602F0E5FB787A3C
:1005700001281CBF0A28052835D10FF2601002F0AF
:10058000DBFB204600F046FE798B388C081A00EB26
:10059000D0714910012926DBB98324E0C18B0029E1
:1005A000D8D04A1EC283D5D1484602F0C5FB676A3F
:1005B000404602F0C1FB787A012818BF0A2803D010
:1005C000052818BF04280ED1584602F0B5FB204676
:1005D00000F0BCFE798C388C081A00EBD071491001
:1005E0000129A8BFF9832468C4B1606A00281CBF30
:1005F000417A0029F7D0418C0029CFD0028C521CBF
:10060000028492B28A42C9D1504602F095FB20463C
:1006100000F0F1FF204600F07FFBE4E7BDE8F18F3A
:10062000646863705F636F617273655F746D722875
:10063000290A0000646863705F74315F74696D65D6
:100640006F757428290A0000646863705F636F61C6
:100650007273655F746D7228293A20743120746951
:100660006D656F75740A0000646863705F74325F53
:1006700074696D656F757428293A206D75737420DF
:10068000726562696E640A00646863705F74325FE9
:1006900074696D656F757428290A00006468637059
:1006A0005F636F617273655F746D7228293A20749D
:1006B000322074696D656F75740A00006468637038
:1006C0005F636F617273655F746D7228293A20747D
:1006D000302074696D656F75740A0000646863701A
:1006E0005F74315F74696D656F757428293A206D88
:1006F0007573742072656E65770A00002DE9F84FF6
:10070000DFF8180A0FF2B80504680FF2DC060FF2E2
:100710000C1B0FF23C180FF26C190FF2781A06E05E
:10072000284602F009FB204600F0F6FA2468002C67
:1007300043D0606A0028F9D0C18A012902DD491E30
:10074000C182F3E7F2D1491EC182504602F0F4FAA9
:10075000676A484602F0F0FA787A0C2818BF062833
:10076000DED0012811D1404602F0E6FAB87A062818
:1007700003DA2046FFF7B8FDD8E7584602F0DCFA66
:10078000204600F038FF2046CEE708280CD130463E
:1007900002F0D2FAB87A0128204602DCFFF73AFDCF
:1007A000C4E700F009FCC1E70328BFD1B87A0128EB
:1007B0002046B9DC00F064FEB8E7BDE8F18F000028
:1007C000646863705F74696D656F757428293A2079
:1007D00072657374617274696E6720646973636FA4
:1007E000766572790A000000646863705F74696DF1
:1007F000656F757428293A20434845434B494E4755
:100800002C20415250207265717565737420746993
:100810006D6564206F75740A000000006468637081
:100820005F74696D656F757428293A20524551557A
:10083000455354494E472C2072656C656173696E4F
:10084000672C2072657374617274696E670A0000A8
:10085000646863705F74696D656F757428293A20E8
:1008600052455155455354494E472C204448435016
:1008700020726571756573742074696D6564206F8D
:1008800075740A00646863705F74696D656F757470
:1008900028290A00646863705F66696E655F746D1D
:1008A0007228293A20726571756573742074696DB8
:1008B000656F75740A00000038B5446ADFF8BC5BE8
:1008C0000020E0622063E87808B1A96961632879B3
:1008D0006168002812BFE869606B4008A06368790E
:1008E000002811BF286A606BC0EBC000C008E0633D
:1008F0000869A062A97929B1686A02F025FDE06261
:10090000012000E00020E072E87918B1A86A02F046
:100910001BFD206331BD38B5050004D005F133005F
:100920000178CA0702D46FF00F0032BD6C6AC1783B
:100930000091837842780FF28400294602F0FCF996
:10094000688DB0F5107F04DA0FF2900002F0F4F930
:1009500030E09CB90FF2C80002F0EEF9402003F03D
:1009600048F9040004D10FF2E00002F0E5F921E0BB
:100970006C620FF2FC0002F0DFF907E00FF21010DA
:1009800002F0DAF9207A08B1FFF736FC4021204660
:1009900003F0D6F90FF2281002F0CEF9FFF706FCAB
:1009A00040B901202072284600F0B6F920B128464F
:1009B00000F089FE4FF0FF3032BD000064686370C4
:1009C0005F7374617274286E657469663D25702961
:1009D00020256325632568750A000000646863703C
:1009E0005F737461727428293A2043616E6E6F746C
:1009F000207573652074686973206E65746966205C
:100A00007769746820444843503A204D5455206912
:100A10007320746F6F20736D616C6C0A00000000AE
:100A2000646863705F737461727428293A20737408
:100A3000617274696E67206E657720444843502068
:100A4000636C69656E740A00646863705F737461D7
:100A5000727428293A20636F756C64206E6F74205D
:100A6000616C6C6F6361746520646863700A000078
:100A7000646863705F737461727428293A20616CD2
:100A80006C6F6361746564206468637000000000CB
:100A9000646863705F737461727428293A207265A8
:100AA0007374617274696E67204448435020636FA9
:100AB0006E66696775726174696F6E0A0000000086
:100AC000646863705F737461727428293A20737468
:100AD000617274696E67204448435020636F6E668C
:100AE000696775726174696F6E0A0000416A002956
:100AF0001CBF4A7A002A0BD0D21E022A01D9D21F6B
:100B000003D100228A7200F0BBBC00228A7203E18A
:100B100070477CB504000E466CD0656A0FF2DC00AD
:100B200002F00AF9002D65D0687A082862D1316890
:100B30000FF2DC0002F000F93068A96A884259D14E
:100B40000FF2001002F0F8F8656A0FF2401002F0A0
:100B5000F3F8687A0C2804D00C2100206972A8727E
:100B6000E88204222946204601F02EF878BBA88AA4
:100B70002A69411CA9821044322180F8F010A88A09
:100B80002A69411CA9821044042180F8F010A86A47
:100B900002F0DAFB0146284600F0BBFD284601F0D2
:100BA000DCF8A98AE868F03189B202F0BFFCB148EC
:100BB0000190009443231048E9688068AF4A01F02F
:100BC000F1FC284601F0BEF80FF2D00001E00FF270
:100BD000E80002F0B1F8A87AFF281CBF401CA872F8
:100BE0001420E88242F21071BDE87C400FF2F80058
:100BF00002F0A2B873BD0000A80000206468637012
:100C00005F6172705F7265706C7928290A0000005C
:100C1000646863705F6172705F7265706C792829B7
:100C20003A20434845434B494E472C20617270207F
:100C30007265706C7920666F722030782530387854
:100C40000A000000646863705F6172705F726570B3
:100C50006C7928293A20617270207265706C792055
:100C60006D6174636865642077697468206F666677
:100C70006572656420616464726573732C206465B9
:100C8000636C696E696E670A0000000064686370D7
:100C90005F6465636C696E6528290A006468637027
:100CA0005F6465636C696E653A204241434B494E0F
:100CB00047204F46460A0000646863705F646563BE
:100CC0006C696E653A20636F756C64206E6F74207A
:100CD000616C6C6F63617465204448435020726599
:100CE00071756573740A0000646863705F6465639E
:100CF0006C696E6528293A20736574207265717578
:100D00006573742074696D656F757420256875202E
:100D10006D736563730A0000F0B5044683B0656ABD
:100D20000FF25C1002F008F8687A00210628A96228
:100D300004D0062100206972A872E88201222946A7
:100D4000204600F041FF06006DD10FF24810DFF899
:100D50006C7C01F0F1FFA88A2A69411CA982104429
:100D6000392180F8F010A88A2A69411CA982104410
:100D7000022180F8F0102846618D00F0C3FCA88A9B
:100D80002A69411CA9821044372180F8F010A88AF2
:100D90002A69411CA9821044042180F8F010A98A14
:100DA00038784A1CAA822A69114481F8F000A98A7D
:100DB00078784A1CAA822A69114481F8F000A98A2D
:100DC000B8784A1CAA822A69114481F8F000A98ADD
:100DD000F8784A1CAA822A69114481F8F000284652
:100DE00000F0BBFF0FF2CC0001F0A6FFA98AE86873
:100DF000F03189B202F09AFB0FF2D80001F09CFFAB
:100E00001C4801900094E968B8681C4A432301F02B
:100E1000C9FB0FF2081001F08FFF284600F092FF87
:100E20000FF2181001E00FF2301001F085FFA87AE0
:100E3000FF280CD0401CA872C0B2062807DA012196
:100E400001FA00F04FF47A7110FB01F101E04EF667
:100E5000602189B201F2F310AF4A80FB02325211D5
:100E600002EBD272EA820FF2201001F065FF3046E9
:100E700003B0F0BD08FD0008CB1900080CFD000808
:100E8000646863705F646973636F76657228290AAA
:100E900000000000646863705F646973636F766567
:100EA000723A206D616B696E67207265717565734A
:100EB000740A0000646863705F646973636F7665C9
:100EC000723A207265616C6C6F632829696E670ADB
:100ED00000000000646863705F646973636F766527
:100EE000723A2073656E64746F28444953434F56B9
:100EF00045522C2049505F414444525F42524F4179
:100F000044434153542C20444843505F5345525668
:100F100045525F504F5254290A00000064686370C4
:100F20005F646973636F7665723A2064656C65749B
:100F3000696E672829696E670A000000646863703B
:100F40005F646973636F7665723A2053454C45431D
:100F500054494E470A000000646863705F64697317
:100F6000636F7665723A20636F756C64206E6F7480
:100F700020616C6C6F63617465204448435020723B
:100F80006571756573740A00646863705F64697382
:100F9000636F76657228293A2073657420726571D3
:100FA000756573742074696D656F75742025687537
:100FB000206D736563730A00F0B583B004001EBF33
:100FC00004F124000568002D00F0A480817C0091CC
:100FD000437C027C0FF24810214601F0ADFE002157
:100FE000298405F128064FF6FF77F16811F1010F0A
:100FF00019D00FF24C1001F09FFEF168DFF8243D8C
:1010000001F11E00A0FB03325009B84288BF3846E8
:1010100082B202B9012068844FF47A7041430FF222
:10102000981001F089FE316911F1010F1BD00FF208
:10103000381001F081FE3169DFF8E83C01F11E0053
:10104000A0FB03325009B84288BF384682B202B9C9
:10105000012028834FF47A7041430FF25C1001F0B5
:101060006BFE288BA883716911F1010F1BD00FF261
:10107000201001F061FE7169DFF8A83C01F11E004B
:10108000A0FB03325009B84288BF384682B202B989
:10109000012068834FF47A7041430FF21C1001F075
:1010A0004BFE688BE883688B298B814202D308B1A1
:1010B00000202883E87A08B1716809E03078802838
:1010C00002DAFF20019006E0C02803DB6FF07F41C9
:1010D000019100E00197B1680291080005D13168E3
:1010E0000198014041F080710291029B019A3168A0
:1010F0000FF2F00001F020FE687A0A2804D00A21DD
:1011000000206972A872E88202AB01AA314620462B
:1011100002F097FE03B0F0BDD34D6210A0B70020DF
:10112000646863705F62696E64286E657469663DA9
:1011300025702920256325632568750A00000000B5
:10114000646863705F62696E6428293A2074302095
:1011500072656E6577616C2074696D6572202575A6
:1011600020736563730A0000646863705F62696E70
:101170006428293A2074312072656E6577616C208D
:1011800074696D657220257520736563730A0000AC
:10119000646863705F62696E6428293A2074322043
:1011A000726562696E642074696D657220257520B0
:1011B000736563730A000000646863705F62696E40
:1011C0006428293A2073657420726571756573749B
:1011D0002074696D656F7574202575206D73656366
:1011E000730A0000646863705F62696E6428293A5C
:1011F0002049503A2030782530387820534E3A2014
:101200003078253038782047573A203078253038E4
:10121000780A0000F8B504460FF22010656A01F064
:101220008BFD697A052904D0052068720020A87218
:10123000E88203222946204600F0C6FC06005CD165
:10124000A88A2A69DFF87477411CA98210443921E1
:1012500080F8F010A88A2A69411CA9821044022152
:1012600080F8F0102846618D00F04CFAA88A2A69AF
:10127000411CA9821044372180F8F010A88A2A69FD
:10128000411CA9821044042180F8F010A98A387802
:101290004A1CAA822A69114481F8F000A98A787848
:1012A0004A1CAA822A69114481F8F000A98AB878F8
:1012B0004A1CAA822A69114481F8F000A98AF878A8
:1012C0004A1CAA822A69114481F8F000284600F0DD
:1012D00044FDA98AE868F03189B202F027F9009448
:1012E000E968B868432305F1240201F043F9284670
:1012F00000F028FD0FF6803001E00FF6943001F089
:101300001BFDA87AFF2809D0401CA872C0B20A2889
:1013100004DA4FF4FA6110FB01F101E044F62061B8
:1013200089B201F2F310DFF8982680FB02325211E5
:1013300002EBD272EA820FF688309AE0646863703A
:101340005F72656E657728290A000000F8B50446CB
:101350000FF69C30656A01F0EFFC697A042904D02D
:10136000042068720020A872E882032229462046E1
:1013700000F02AFC06005CD1A88A2A69DFF83C76D6
:10138000411CA9821044392180F8F010A88A2A69EA
:10139000411CA9821044022180F8F0102846618D7A
:1013A00000F0B0F9A88A2A69411CA98210443721AB
:1013B00080F8F010A88A2A69411CA98210440421EF
:1013C00080F8F010A98A38784A1CAA822A69114448
:1013D00081F8F000A98A78784A1CAA822A69114407
:1013E00081F8F000A98AB8784A1CAA822A691144B7
:1013F00081F8F000A98AF8784A1CAA822A69114467
:1014000081F8F000284600F0A8FCA98AE868F031CD
:1014100089B202F08BF80094E968B868DFF808290F
:10142000432301F0A7F8284600F08CFC0FF6D020EB
:1014300001E00FF6E42001F07FFCA87AFF2809D034
:10144000401CA872C0B20A2804DA4FF47A7110FB6B
:1014500001F101E042F2107189B201F2F310DFF8FC
:10146000602580FB0232521102EBD272EA820FF643
:10147000D82001F061FC3046F2BD00000CB700201E
:10148000F8B506460FF6F020746A01F055FC617A53
:10149000032904D0032060720020A072E08203229E
:1014A0002146304600F090FB050040F08080A08A85
:1014B0002269DFF80875411CA1821044392180F8A7
:1014C000F010A08A2269411CA1821044022180F8F8
:1014D000F010A08A2269411CA1821044022180F8E8
:1014E000F010A08A2269411CA1821044402180F89A
:1014F000F010A08A2269411CA1821044322180F898
:10150000F010A08A2269411CA1821044042180F8B5
:10151000F010A06A01F018FF0146204600F0F9F82B
:10152000A08A2269411CA1821044372180F8F01062
:10153000A08A2269411CA1821044042180F8F01085
:10154000A18A38784A1CA2822269114481F8F000ED
:10155000A18A78784A1CA2822269114481F8F0009D
:10156000A18AB8784A1CA2822269114481F8F0004D
:10157000A18AF8784A1CA2822269114481F8F000FD
:10158000204600F0EAFBA18AE068F03189B201F060
:10159000CDFF0096E168B868DFF88C27432300F0A0
:1015A000E9FF204600F0CEFB0FF6DC1001E00FF65D
:1015B000F01001F0C1FBA07AFF2809D0401CA072F6
:1015C000C0B20A2804DA4FF47A7110FB01F101E08D
:1015D00042F2107189B201F2F310DFF8E42380FBCC
:1015E0000232521102EBD272E2820FF6E41001F0E5
:1015F000A3FB2846F2BD7CB505460FF604206C6AB5
:1016000001F09AFB14B96FF00F0076BD606A01908B
:10161000284600F0BCFB0146607A18B100226272D5
:10162000A272E282002000296062A062E062206370
:10163000E063A063606360842084E083A08341D082
:1016400007222146284600F0BFFA06002ED1A08AC4
:101650002269411CA1821044362180F8F010A08A32
:101660002269411CA1821044042180F8F0100198E5
:1016700001F06AFE0146204600F04BF8204600F0DB
:101680006CFBA18AE068F03189B201F04FFFDFF80E
:101690002C03806800954323E16801AA00F06AFFEB
:1016A000204600F04FFB0FF6681001E00FF688109F
:1016B00001F042FBDFF8742613461146284602F07B
:1016C000C0FB304676BD002800D1704710B5446A93
:1016D0000FF6941001F030FB5CB1607A18B1002174
:1016E0006172A172E182207A18B1FEF785FD0021B6
:1016F000217210BD828A531C83820069104480F8D5
:10170000F010704730B4828A0569531C2A448382E2
:1017100015E030B4828A0569531C2A4483820C0E7A
:1017200082F8F0405A1C056982829BB22B440C0C53
:1017300083F8F040531C0569838292B22A440C0A54
:1017400082F8F0405A1C82829BB20069184480F8EB
:10175000F01030BC70472DE9F24F84B004460020F1
:1017600003900A21DFF8C80502F0EAFA04984189DB
:101770002C29C0F01D8141686160F0250498B0F803
:101780000890F8E02D1A3F68ADB2A9EB0009002FD0
:1017900000F00E8178898542F4DA786801901FFAAA
:1017A00089F90198415DFF2900F0D4804D4580F210
:1017B000D1807A89681C90424FF0FF3605F102080B
:1017C00003DA01982844447805E0386800281ABFF5
:1017D0004068047800240800A24612D0012915D0E0
:1017E000032917D006291BD0332928D034292AD021
:1017F00035292CD036292ED03A2930D03B2932D069
:1018000035E000246D1EA246ADB236E0042C7DD139
:10181000062632E0042C4FF0040A77DB07262CE082
:10182000611004EB91708010B4EB80006ED1082C35
:10183000A8BF4FF0080A544568DB08261DE0042CB9
:1018400064D1032619E0012C60D1002615E0012C9B
:101850005CD1012611E0042C58D102260DE0042CA5
:1018600054D1042609E0042C50D1052605E00FF6DA
:10187000080001F061FA4FF0000A2D19AD1CBAF111
:10188000000FADB251D00020009002974746DFF81C
:10189000A0148819DFF89C1401EB8604804621E02F
:1018A0000298BBB25A46694601F084FF584540F0A1
:1018B0007F80BAF1040F20DD4FEA6A010AEB9171D3
:1018C0008910BAEB810021D1012008F8010B3F1DDE
:1018D000009801F039FD44F8040B761CAAF10400CD
:1018E0005FFA80FA98F80000002864D1BAF1040F7A
:1018F000B4BFD3464FF0040BD2E7029F03D1009848
:1019000001F022FD07E0BAF1010F02D06FF00500EF
:1019100058E09DF80000DFF818240090012191554F
:101920000098DFF8101441F8260078898542FFF608
:1019300038AF2D1AA9EB0000ADB21FFA80F94D4562
:1019400008DAB9F1000F1FBF3F6878680190002FD7
:101950007FF427AFDFF8D813087800B30A460020D9
:10196000D1681070012908D10FF22C7001F0E4F950
:101970006C254FF0EC09049F09E7022904D10FF20E
:10198000307001F0D9F90CE0032904D10120039053
:101990000FF23470EAE70FF2547001F0CDF90398BA
:1019A00028B1002103912C254FF06C09E3E709E0F1
:1019B0006FF0010006E0029FB7E70000A8000020DA
:1019C000D34D621005B0BDE8F08F2DE9F043DFF88C
:1019D0006803D0F8048008F1240583B017462C680A
:1019E0007E68002C194600F0D880207A002800F08C
:1019F000D2800A980290C8780190887800904B783D
:101A00000A780FF20870394601F096F979890FF2D9
:101A10003C7001F091F939890FF2447001F08CF9B2
:101A200078892C28B8BF0FF2507033DB3178022947
:101A300018BF0FF26C7040F0AC80002101E0491C2F
:101A4000C9B2287A814280F2AE80062980F0AB804C
:101A5000701808EB0102007F92F82D208242EED030
:101A600000900B460FF2607001F066F993E0394682
:101A70002046FFF770FE10B10FF2C4700AE00FF2BB
:101A8000F870DFF8AC9201F057F999F8010020B92D
:101A90000FF6080001F050F97DE099F810000528D4
:101AA0001CD10FF6240001F047F9607A012809D112
:101AB0004046FEF701FFE87B010740460BD5FEF7E5
:101AC000A9FB68E003281CBF0428052863D1404611
:101AD000FEF7F2FE4046FFF76FFA5CE0062828D1D9
:101AE000607A032818BF012803D0042818BF0528EE
:101AF00051D10FF2E87001F01FF92E68A87C009018
:101B00006B7C2A7C0FF2A420414601F015F9707A13
:101B10000C2804D00C2100207172B072F082404673
:101B200082490B460A4602F08CF94046FFF7F4F86A
:101B300031E0022804BF607A06282CD10FF2B07081
:101B400001F0FAF80020E08241462E68A87C00905F
:101B50006B7C2A7C0FF2782001F0EEF899F80200F5
:101B6000A0B1D9F8140001F0EFFB706201460FF24A
:101B7000882001F0E1F8706801690FF2A020B162DD
:101B800001F0DAF84046FEF7AFFB04E041460FF201
:101B9000B42001F0D1F800206060384603B0BDE801
:101BA000F04301F034BD706801F0CEFB216888423B
:101BB0003FF45DAF706801F0C7FB226801460FF289
:101BC000446001F0B9F8E6E7F8B504000D461646A2
:101BD00002D16FF00F00F2BD15B96FF00500F2BD34
:101BE00000224FF49A71002001F0C0FBE86030B988
:101BF0000FF2307001F0A0F84FF0FF30F2BD032E6D
:101C00004E4F06D0A87A10B902F0B0FA38603968A1
:101C1000296039680FF2387001F08EF8E868406882
:101C2000286101210170012029694870296994F80F
:101C30002C00887000202969C870286801F084FB96
:101C40002969486000212869082E1CBF042E072E30
:101C500001814181C16006D0032E07D1687A052831
:101C600018BF042802D128696268C260286901612E
:101C70002A69516128698161002094F82C108842FA
:101C800005DA062803D204F12D01095C00E00021E9
:101C90002A690244401C117794F82C10884205DA16
:101CA000062803D204F12D01095C00E000212A6915
:101CB0000244401C10281177DFD3002000212A693C
:101CC00002F12C031954401C4028F8D300202A6943
:101CD0000244401C802882F86C10F8D32869184907
:101CE000C0F8EC1000200021A9822969014481F884
:101CF000F000401C4428F8D3A88A2A69411CA98214
:101D00001044352180F8F010A88A2A69411CA98264
:101D10001044012180F8F01028463146FFF7EAFC14
:101D20000020F2BD898888880CFD000808FD0008A5
:101D30000CB7002018B7002064B70020B8B7002007
:101D40006382536310B5040006D0E06808B101F067
:101D50005EFC0020E060206110BDB8B1818AD0F83F
:101D600010C04A1C6144FF2381F8F03092B2442A2B
:101D700002D312F0030F08D0442A06D20369134499
:101D8000002183F8F010521CF0E78282704700288F
:101D90001CBF406A002806D0407A0A2818BF0528D0
:101DA00001D1012070470020704700006468637013
:101DB0005F68616E646C655F6E616B286E657469E7
:101DC000663D25702920256325632568750A000076
:101DD000646863705F68616E646C655F6F6666659A
:101DE00072286E657469663D257029202563256318
:101DF0002568750A00000000646863705F68616EA2
:101E0000646C655F6F6666657228293A2073657237
:101E1000766572203078253038780A0064686370FF
:101E20005F68616E646C655F6F6666657228293AEB
:101E3000206F6666657220666F72203078253038B4
:101E4000780A0000646863705F68616E646C655F47
:101E50006F66666572286E657469663D2570292017
:101E6000646964206E6F7420676574207365727690
:101E70006572204944210A00646863705F72656E70
:101E800065773A2052454E4557494E470A000000B3
:101E9000646863705F72656E65773A20636F756C16
:101EA00064206E6F7420616C6C6F63617465204494
:101EB00048435020726571756573740A0000000014
:101EC000646863705F72656E657728293A20736570
:101ED0007420726571756573742074696D656F75B2
:101EE0007420256875206D736563730A0000000017
:101EF000646863705F726562696E6428290A000015
:101F0000646863705F726562696E643A205245422C
:101F1000494E44494E470A00646863705F726562C7
:101F2000696E643A20636F756C64206E6F74206113
:101F30006C6C6F6361746520444843502072657116
:101F4000756573740A000000646863705F7265628F
:101F5000696E6428293A207365742072657175650D
:101F600073742074696D656F757420256875206DB4
:101F7000736563730A000000646863705F72656272
:101F80006F6F7428290A0000646863705F7265626D
:101F90006F6F743A205245424F4F54494E470A00E2
:101FA000646863705F7265626F6F743A20636F7507
:101FB0006C64206E6F7420616C6C6F63617465205B
:101FC0004448435020726571756573740A000000BF
:101FD000646863705F7265626F6F7428293A20735A
:101FE000657420726571756573742074696D656FB1
:101FF000757420256875206D736563730A00000091
:10200000646863705F72656C6561736528290A0096
:10201000646863705F72656C656173653A205245F0
:102020004C45415345442C20444843505F53544150
:1020300054455F4F46460A00646863705F72656C82
:10204000656173653A20636F756C64206E6F7420F0
:10205000616C6C6F63617465204448435020726505
:1020600071756573740A0000646863705F73746FE0
:102070007028290A00000000736B697070696E6730
:10208000206F7074696F6E2025687520696E206FEF
:102090007074696F6E730A006F7665726C6F61643D
:1020A00065642066696C65206669656C640A000079
:1020B0006F7665726C6F6164656420736E616D65C7
:1020C000206669656C640A006F7665726C6F616486
:1020D000656420736E616D6520616E642066696C55
:1020E00065206669656C640A00000000696E7661AF
:1020F0006C6964206F7665726C6F6164206F7074B8
:10210000696F6E3A2025640A0000000064686370FD
:102110005F726563762870627566203D20257029A0
:102120002066726F6D204448435020736572766557
:1021300072202568752E2568752E2568752E2568F0
:102140007520706F7274202568750A00706275665C
:102150002D3E6C656E203D202568750A000000004C
:10216000706275662D3E746F745F6C656E203D20E5
:102170002568750A000000004448435020726570CD
:102180006C79206D657373616765206F7220706272
:10219000756620746F6F2073686F72740A00000098
:1021A0006E6F7420612044484350207265706C79D2
:1021B000206D6573736167652C2062757420747976
:1021C0007065202568750A006E657469662D3E6825
:1021D00077616464725B2568755D3D3D25303268CA
:1021E0007820213D207265706C795F6D73672D3E9C
:1021F0006368616464725B2568755D3D3D253032BE
:1022000068780A007472616E73616374696F6E201E
:102210006964206D69736D61746368207265706CA8
:10222000795F6D73672D3E78696428257829213D93
:10223000646863702D3E786964282578290A000057
:1022400070726F626C656D20756E666F6C64696E1E
:10225000672044484350206D657373616765202D86
:1022600020746F6F2073686F7274206F6E206D65BD
:102270006D6F72793F0A0000736561726368696E01
:102280006720444843505F4F5054494F4E5F4D457F
:1022900053534147455F545950450A004448435001
:1022A0005F4F5054494F4E5F4D4553534147455F33
:1022B00054595045206F7074696F6E206E6F742092
:1022C000666F756E640A0000444843505F41434B9B
:1022D0002072656365697665640A0000444843506E
:1022E0005F4E414B2072656365697665640A000044
:1022F000444843505F4F46464552207265636569C6
:1023000076656420696E20444843505F53544154BD
:10231000455F53454C454354494E4720737461749F
:10232000650A0000646863705F6372656174655F6D
:102330006D736728293A20636F756C64206E6F7423
:1023400020616C6C6F6361746520706275660A0051
:102350007472616E73616374696F6E206964207852
:102360006964282578290A002DE9F04F834685B055
:10237000BBF80A00082806DABBF808100FF2BC50B8
:1023800000F0DAFCCFE0DFF84C75DBF80460786928
:10239000DFF844850D46396801F03CFF8146BBF803
:1023A00008100FF2D05000F0C7FC308800F0C6FFD4
:1023B0008246708800F0C2FF0446304600F090FA72
:1023C0000FF2DC5000F0B8FCF87DBB7D7A7D397DE2
:1023D00000900FF2D45000F0AFFC708800F0AEFF18
:1023E00001460FF2D45000F0A7FCF87CBB7C7A7C4D
:1023F000397C00900FF2B05000F09EFC308800F065
:102400009DFF01460FF2C05000F096FCD8F8040082
:10241000029503940022019200240546002D00F04D
:1024200088800FF2AC5000F087FCE8780090AB7821
:102430006A7829780FF2705000F07EFC698A0FF2FA
:10244000785000F079FCE8790090AB796A792979C5
:102450000FF2545000F070FCA98A0FF26C5000F09B
:102460006BFC688A0399884223D1B9F1000F286870
:102470000CD000281CBF796911F1010F0BD0029A12
:10248000926810401140884205D012E000281CBF1D
:10249000796988420DD1287C410701D404B92C46C2
:1024A000A88A504505D1686800281CBF3969884250
:1024B00054D00195ED68B1E707F11400009007F1E1
:1024C0001003BBF808201121584601F099FF00289D
:1024D0003CD00FF2405000F02FFC24E064B1A6691C
:1024E0000EB3CDF800A007F11003E0695A4621466B
:1024F000B04705B0BDE8F08F0FF2005000F01CFCB3
:10250000B9F1000F0FD1387D00F0F000E0280AD0BB
:10251000B7F90C10083109B2584601F076F80321DA
:10252000584602F0AAF8584605B0BDE8F04F01F051
:102530006EB802981CB9406879698842F3D10FF2ED
:10254000984000F0F9FBF0880028B5D16FF0070142
:10255000584601F058F80028C0D0E4E70198002858
:102560002C46ECD0E168C160D8F80400E060C8F8FF
:102570000440E4E77CB5002818BF002A0BD00468AB
:10258000069D002C1ABF04F0F006E02E2C1D04D08E
:102590006E68B44200D05CE104460194009500F0FE
:1025A00001F876BD2DE9F04F050014BF5FEA020A7D
:1025B0006FF0050083B088461F4600F08480688A6B
:1025C00080B90FF29C4000F0B7FB6A8A2946284682
:1025D00000F07CF8060005D00FF2B44000F0ACFB30
:1025E000304670E00821404601F00DF8D8B10022D5
:1025F0000821012000F0BAFE060006D10FF2B44017
:1026000000F09AFB4FF0FF305DE0B8F8080018B119
:102610004146304601F069F8424631460FF2BC406F
:1026200000F08AFB05E041460FF2E84000F084FB31
:102630004646DDF834907468688A00F07FFE20809A
:10264000384600F07BFE60800020E08031890FF288
:10265000F04000F071FB31890FF2105000F06CFB7C
:10266000308900F06BFEA080287CC1070CD4CDF827
:1026700000A04B4632891121304601F0C1FE010015
:1026800008BF4FF6FF70E0800C9F95F80AB0E18814
:102690000FF2FC4000F050FB11210FF2145000F03B
:1026A0004BFB0297112001905B46687A00905246DE
:1026B0004946304602F05AFB044646451CBF3046A8
:1026C00000F0A5FF204603B0BDE8F08F2DE9F04BE8
:1026D0000C00064608BF814C002E14BF002C6FF082
:1026E000050082B05DD093460FF2EC400FF2B8289F
:1026F000794F00F021FBE0780090A3786278217890
:10270000404600F019FB59460FF2E04000F014FB80
:10271000D7F804900025484600E0C06810B1864212
:10272000FBD10125BBF1000F19D100224FF440432A
:102730004FF6FF7C3888411C604508BF1946398038
:102740004846398800E0C06868B3B0F812E08E45AA
:10275000F9D1521C92B2B2F5804FEBDB25E048462E
:102760002246594600E0C06838B38642FBD0438A0F
:102770008B4202BF136804689C42F4D10FF2A04060
:1027800000F0DAFA15E0F078B378727831780090DA
:10279000404600F0D1FA718A0FF2D04000F0CCFA36
:1027A0000020BDE8F68B080008D10FF2504000F081
:1027B000C3FA6FF00700BDE8F68B1446206830605E
:1027C000718215B9C6F80C907E600FF28C4000F053
:1027D000B3FA002ED7D10020002300220021D6E733
:1027E00070B504000D4618BF002D82B0164600D10A
:1027F0002FE0608A30B9002221462046FFF766FFAD
:10280000010024D128686060A682207C40F004008A
:1028100020740FF2684000F08FFAE0790090A379FD
:10282000627921790FF2801000F086FAA18A0FF206
:102830003C4000F081FA28494A68104600E0C06830
:1028400018B18442FBD1002076BDE2604C6076BDB9
:1028500000006FF0050076BD8161C26170470146DE
:102860001D4842688A4203D1D268426008E00246AD
:1028700032B1D0680028FAD08842F8D1C868D06058
:10288000002002F039BE10B5FFE7002002F02BFE59
:10289000040004D0202102F073FEFF20A072204625
:1028A00010BD00281CBF0368002B11D000291CBFDD
:1028B0000A68002A0CD0084B5A6807E0D2F800C01A
:1028C00003689C4504BF0B681360D268002AF5D1E9
:1028D0007047000064B70020C800002008FD000811
:1028E00070B504460FF2B0300FF2BC3500F024FA98
:1028F000284600F021FA608800F020FD0646208876
:1029000000F01CFD014632460FF2C03000F014FA10
:10291000284600F011FAE08800F010FD0646A08875
:1029200000F00CFD014632460FF2D83000F004FAF8
:102930002846BDE8704000F0FFB900007564705F84
:10294000696E7075743A2073686F727420554450C4
:1029500020646174616772616D202825687520624A
:102960007974657329206469736361726465640AAC
:10297000000000007564705F696E7075743A2072B3
:102980006563656976656420646174616772616D11
:10299000206F66206C656E677468202568750A0074
:1029A00075647020280000002568752E2568752E36
:1029B0002568752E256875002C2025687529203C12
:1029C0002D2D2028000000002C20256875290A00E4
:1029D00070636220280000007564705F696E707516
:1029E000743A2063616C63756C6174696E6720630F
:1029F0006865636B73756D0A000000007564705F35
:102A0000696E7075743A206E6F7420666F722075EF
:102A1000732E0A007564705F696E7075743A205584
:102A2000445020286F7220554450204C6974652909
:102A300020646174616772616D206469736361729F
:102A40006465642064756520746F206661696C69D3
:102A50006E6720636865636B73756D0A0000000024
:102A60007564705F73656E643A206E6F742079656B
:102A70007420626F756E6420746F206120706F72B5
:102A8000742C2062696E64696E67206E6F770A002D
:102A90007564705F73656E643A20666F7263656417
:102AA00020706F72742062696E64206661696C6563
:102AB000640A00007564705F73656E643A20636F2A
:102AC000756C64206E6F7420616C6C6F63617465EB
:102AD000206865616465720A000000007564705FBB
:102AE00073656E643A20616464656420686561643E
:102AF00065722070627566202570206265666F724F
:102B00006520676976656E20706275662025700A9B
:102B1000000000007564705F73656E643A20616444
:102B20006465642068656164657220696E20676908
:102B300076656E20706275662025700A00000000C0
:102B40007564705F73656E643A2073656E64696E58
:102B50006720646174616772616D206F66206C65C7
:102B60006E677468202568750A0000007564705FE0
:102B700073656E643A20554450207061636B6574D0
:102B8000206C656E677468202568750A0000000077
:102B90007564705F73656E643A20554450206368B5
:102BA00065636B73756D20307825303468780A0062
:102BB0007564705F73656E643A2069705F6F7574D9
:102BC0007075745F696620282C2C2C2C3078253089
:102BD0003268782C290A00007564705F62696E643F
:102BE00028697061646472203D2000002C20706FA1
:102BF0007274203D20256875290A00007564705F95
:102C000062696E643A206F7574206F662066726523
:102C1000652055445020706F7274730A00000000E4
:102C20007564705F62696E643A206C6F63616C20DA
:102C3000706F72742025687520616C7265616479AB
:102C400020626F756E6420627920616E6F746865B2
:102C500072207063620A00007564705F62696E645E
:102C60003A20626F756E6420746F20002C20706FA4
:102C7000727420256875290A000000007564705F71
:102C8000636F6E6E6563743A20636F6E6E65637416
:102C9000656420746F2000005544502068656164AD
:102CA00065723A0A000000002B2D2D2D2D2D2D2DA3
:102CB0002D2D2D2D2D2D2D2D2D2D2D2D2D2D2D2D44
:102CC0002D2D2D2D2D2D2D2D2B0A00007C2020208B
:102CD00020202535687520202020207C20202020E1
:102CE000202535687520202020207C2028737263E1
:102CF00020706F72742C206465737420706F72740E
:102D0000290A00007C2020202020253568752020FD
:102D10002020207C20202020203078253034687826
:102D2000202020207C20286C656E2C2063686B732B
:102D3000756D290A000000000EB4C0B5024603A854
:102D400000210190009101AB0121044878440C302E
:102D500002F01AFC06BC5DF810FB00BF5FCF00005C
:102D600010B5DFF8C41500EB400201EBC20482B0DD
:102D7000206818B100F04BFC002020600020207576
:102D80006082A060606002B004F10C00BDE81040F9
:102D9000DFF89815062202F067BE70B582B00024F5
:102DA000DFF88455DFF88865287DE0B1698A491C21
:102DB000698289B2B1F5967F03DA012805D1042929
:102DC0000CDD2046FFF7CCFF0DE0032808BF0420F0
:102DD00002D0042807D10220287504E0A8683246F2
:102DE000291D00F05AFA641C18350A2CDCDB73BD6F
:102DF0002DE9F84F4FF0000E0B460A27F046BC466F
:102E00000A260A25C1460022DFF81C450146207D1E
:102E10000A2E04BF002856B221D000B329B1D1F840
:102E200000A0D4F804B0DA450AD0012810D12068F7
:102E30000028608A07D0704511D355B286460EE04F
:102E400050B2BDE8F28F404509D357B2804606E044
:102E500005DD608A484524BF4FFA82FC8146521C3A
:102E600018340A2AD3DB28469D070C4603D40A2EC1
:102E700005D1D90706D44FF0FF30BDE8F28FB8BFB7
:102E8000F7B211DB4FFA8CF10A29B8BF5FFA8CF761
:102E900007DB0A2FB8BFFFB203DB41B20A29EADA27
:102EA000C7B23846FFF75CFF07EB4700C00024B10C
:102EB000DFF874242168024451600022DFF87414A2
:102EC0000A5278B2BDE8F28FF8B506460C001CBF76
:102ED0002068002815461F4608D0314601F09AF9AF
:102EE00020B9207800F0F000E02802D16FF00F0048
:102EF000F2BD324639462046FFF77AFF002821D43A
:102F0000DFF8241400EB400201EBC2070220387501
:102F1000BE600622294607F10C0002F0A5FD002044
:102F20003C6878826CB138602B464FF400600090AA
:102F300006F12D022146304602F035FE204600F013
:102F400066FB0020F2BD2DE9F843DFF8DC43DFF833
:102F5000DC83814600272546287DB8B1A96849450C
:102F600014D107EB470004EBC006306818B100F03D
:102F70004EFB00203060002030757082B0607060C1
:102F8000414606F10C00062202F06EFD7F1C18354A
:102F90000A2FE1DBBDE8F183F0B50C0083B00746F2
:102FA0005ED07E683088B0F5807F04BF3179062915
:102FB00053D17079042804BF718808294DD106F1D6
:102FC0000E0001A902680A6006F1180102A80A6849
:102FD0000260606820B1824202D10125012301E034
:102FE0000025022306F1080201A92046FFF76CFF25
:102FF000F088B0F5807F07D0B0F5007F02BF01A94F
:103000002046FDF786FD28E03DB3022000F096F94A
:10301000F08006F1180106F10E0002680A60201D1A
:1030200006F10E0102680A6006F10801062206F1A7
:10303000120002F019FD062204F12D0106F108002C
:1030400002F012FD40F60600009006F1120306F1B0
:1030500008023946204602F0A6FD384600F0D7FAAD
:1030600003B0F0BD70B504460D46AF4802EB420117
:1030700000EBC10682B0307D022817D1708A40F281
:103080001D11884206DBAA4A311D204600F005F9D1
:1030900060B909E0B0F5877F08DB06F10C02311D4D
:1030A000204600F0FAF808B9032030754FF40060AC
:1030B000009006F10C0304F12D022946204602F08F
:1030C00072FD76BDF0B583B005460E46294617461B
:1030D0003C46386801F09EF858B1954B4FF40060BB
:1030E000009005F12D023146284602F05CFD03B048
:1030F000F0BD386800F0F001E02915D101208DF80D
:10310000040000215E208DF806008DF8051001AB4B
:10311000787800F07F008DF80700B8788DF8080007
:10312000F8788DF80900D9E7A9686B6801EA000210
:1031300019408A421EBF80B24FF6A961884203D06F
:10314000E868C8B105F10C047B48027802EB420143
:10315000CB00754901F11407FF5C022F10DB01F170
:10316000040E27685EF803309F4209D13146284695
:10317000FFF778FF03B0F0BD6FF0030003B0F0BDC0
:10318000002301F1040C03EB4302D70001F1140208
:10319000D25D022A04DB22685CF80770BA4209D0CB
:1031A0005B1C0A2BEFDB32462146284600F005F86F
:1031B00003B0F0BD0370DAB2D8E72DE9F04782B072
:1031C00080460D461446286841464FF0FF3A01F00C
:1031D00021F8D14638B9286800F0F001E02918BF7D
:1031E000002D00D018B96FF00F00BDE8F6874246F9
:1031F00001212846FFF7FCFD0646002E3DD44A4833
:1032000006EB460100EBC107387D20B90121397575
:10321000C7F8088000E034B9454A2946404600F026
:103220003CF8814644B3387D01280EDD42480670E3
:103230004FF40060009007F10C0308F12D022146C5
:10324000404602F0B0FC814616E015D1204600E071
:103250000068A0B1017B0129FAD001890022022077
:1032600000F084F8050006D0214600F04EFA60B167
:10327000284600F0CCF9D1464846BDE8F6872546F9
:10328000284600F011FA002DF5D0386808B100F09A
:10329000BEF93D604FF00009EEE72DE9F04106462A
:1032A0000F46904682B000221C21022000F05EF8FA
:1032B000040008BF4FF0FF3031D06568012000F0F6
:1032C0003DF8E880062206F12D0105F1080002F024
:1032D000CBFB0622154905F1120002F0C5FB301D9B
:1032E00005F10E0102680A6005F1180039680160F5
:1032F0004FF48070288043460820688006F12D0234
:103300000620287121460420687140F606000090CE
:10331000304602F048FC204600F079F90020BDE874
:10332000F681034AB9E7000064AD0020F8FC00080C
:10333000F05B000876AD002008B800200146000AC6
:1033400040EA012080B270470146080200F47F0085
:103350000A0A40EA016002F47F42104340EA116029
:1033600070470268531C0360117070472DE9F041EB
:10337000044682B016460FF2B0400D46FFF7DCFC63
:10338000042CA84600F29280DFE804F00305070948
:103390000900362704E0222702E00E2700E000277C
:1033A000032E00F28380DFE806F04F7474020C20D5
:1033B00002F099F8044621460FF28440FFF7BCFC66
:1033C000002C73D003202073002020602581E01999
:1033D0001030C01C800880006060F81C80088000ED
:1033E000C0F5FA70854205D3FD1C4FF6FC70054010
:1033F000C5F5FA75658101206589E0812746A8EB4E
:10340000050516E003210173002141730160386056
:10341000A9B2B1F5FA7F2CBF4FF4FA712946418168
:10342000058100F11001416007460121C1814189F8
:103430006D1A012D20DB0C2002F055F80028E1D197
:10344000204600F0E4F831E007F113004FF6FC717C
:10345000EA1C08400A40101880B200F0CAFB0400C1
:1034600024D0E0191030C01C8008800060602581E5
:1034700065810020206020730120E0812246002029
:10348000607341460FF21040FFF756FC2046BDE83E
:10349000F6810B2002F027F804000AD1012E0CBFA0
:1034A00007A108A10FF2B830FFF746FC0020BDE8E5
:1034B000F681002060602581658120602673DBE74E
:1034C000524F4D0052454600F8B507460C4615468A
:1034D0001E460FF2E430FFF72FFC042F15D8DFE86B
:1034E00007F0030E10121200382107980A199042B3
:1034F0000DD221460FF2E430FFF71EFC05E0242137
:10350000F3E71021F1E70021EFE70020F2BD069874
:103510000022326000B10844706034810220707370
:1035200074810120F08135733046F2BD38B5044610
:103530000D462089814222D2281A05E06D1A218980
:1035400041182181ADB224686189A942F6DB207B54
:1035500060B98D420AD0607B810707D46168091B7E
:10356000691889B2204600F0DFFA04466581608957
:103570002081206808B100F04AF80020206031BDA9
:10358000F8B50446080018BF002C3AD00B0005D54A
:103590005E426089B5B2A84201D213E08EB2207BB0
:1035A0006768002818BF03280ED1584204F11002A2
:1035B00038449042606018D201460FF25430FFF751
:1035C000BBFB67600120F2BD022818BF0128F9D1BA
:1035D000002B04D56089B6B2B042F3D302E0F1DD2E
:1035E000002AEFD058423844606060896268081849
:1035F000608120890918218139460FF25C30FFF77C
:103600009BFB0020F2BD0022BAE70122B8E7F8B523
:10361000040005D10FF26430FFF78EFB0020F2BDED
:1036200021460FF27C300FF28837FFF785FB00262A
:1036300002F0B2FBE1894D1EE58102F0B6FBADB2AE
:103640000DBB256821463846FFF776FB617B207B62
:103650008A0703D521692046884710E0032802D154
:1036600021460C2005E0012818BF022804D121467C
:103670000B2001F041FF02E0204600F003FA761C27
:103680002C00D5D105E02A4621460FF24030FFF745
:1036900053FBF0B2F2BD0146002001E00968401C76
:1036A0000029FBD180B2704710B5040008D002F0A9
:1036B00073FBE189491CE181BDE8104002F075BB54
:1036C00010BD81B078B131B901B07047B1F808C010
:1036D00063440381104602680389002AF6D10A89EF
:1036E000D3180381016001B0704738B504460D4618
:1036F000FFF7E7FF2846FFF7D7FF2A462146BDE838
:1037000038400FF2F420FFF717BB2DE9F0410546D2
:103710000C46224629460FF20030FFF70DFB00262B
:10372000002D18BF002CB0463FD02889218988423F
:103730003BD367896889811BA7EB08029142ACBF24
:10374000A7EB0807871B606800EB08016868BFB239
:103750003A46304402F088F9B84460891FFA88F884
:10376000BE1980456889B6B2A4BF4FF0000824682E
:10377000864202BF00262D68002D14D02CB160892E
:103780002189884201D1206880B92DB168892989B1
:10379000884201D1286848B9002CCAD10FF28C2088
:1037A000FFF7CAFA3DE0002CF8D036E06FF00500D4
:1037B000BDE8F0812DE9F843044600258846002C39
:1037C00018BFB8F1000F17460AD0A94621E0668954
:1037D00098B240B1B04206D324689B1B002CF6D1AE
:1037E0002846BDE8F283F61AB6B2BFB26068B742A7
:1037F0009BB2B8BF3E46C118324608EB090002F042
:1038000033F97519B1442468ADB21FFA89F9BF1BA9
:103810000023B8B20028E3D0E0E76FF00F00BDE866
:10382000F0810020BDE8F081706275665F616C6CAC
:103830006F63286C656E6774683D256875290A009A
:10384000706275665F616C6C6F633A20616C6C6F5F
:10385000636174656420706275662025700A0000DB
:10386000706275665F616C6C6F633A20436F756C54
:1038700064206E6F7420616C6C6F63617465204DA1
:10388000454D505F5042554620666F72205042555C
:10389000465F25732E0A0000706275665F616C6C6E
:1038A0006F63286C656E6774683D25687529203DD7
:1038B0003D2025700A000000706275665F616C6CC7
:1038C0006F6365645F637573746F6D286C656E6795
:1038D00074683D256875290A0000000070627566ED
:1038E0005F616C6C6F6365645F637573746F6D2883
:1038F0006C656E6774683D2568752920627566661B
:10390000657220746F6F2073686F72740A00000014
:10391000706275665F6865616465723A20666169A8
:103920006C6564206173202570203C202570202860
:103930006E6F7420656E6F75676820737061636564
:1039400020666F72206E65772068656164657220FD
:1039500073697A65290A0000706275665F6865613F
:103960006465723A206F6C64202570206E65772044
:1039700025702028256864290A0000007062756699
:103980005F667265652870203D3D204E554C4C2980
:10399000207761732063616C6C65642E0A000000FF
:1039A000706275665F66726565282570290A000079
:1039B000706275665F667265653A206465616C6CFD
:1039C0006F636174696E672025700A0070627566A6
:1039D0005F667265653A20257020686173207265A4
:1039E00066202568752C20656E64696E67206865A1
:1039F00072652E0A00000000706275665F63686180
:103A0000696E3A202570207265666572656E636521
:103A1000732025700A000000706275665F636F7026
:103A2000792825702C202570290A0000706275669F
:103A30005F636F70793A20656E64206F66206368FB
:103A400061696E20726561636865642E0A0000001A
:103A5000984818B400F10F0189080023890001601B
:103A60004B800B714FF420520A808B184360012465
:103A70001C711A805A80816042F62001084412BCF1
:103A800002F05CB970B5040082B005D1BDE87640A3
:103A90000FF22420FFF750B9864D2968884202D3DF
:103AA0006968884209D30FF23420FFF745F902F024
:103AB00073F9BDE8764002F078B942F620002E187E
:103AC000304602F04DF9A4F1080100200871A86801
:103AD000814238BFA9602A680888131899420ED01D
:103AE000187960B96C68A34209D0A868984208BFE9
:103AF000A96018880880941C1B88881AE05248889E
:103B000013188B420BD0187948B9AC688C4208BFA7
:103B1000AB6008881880901C09889B1A4352304675
:103B2000BDE8764002F021B92DE9F8438146CD1C6D
:103B30004FF6FC7005400C2D38BF0C2502D3B5F5AF
:103B4000205F1AD85B4E3468A14502D3716889455D
:103B500008D30FF2A410FFF7EFF802F01DF902F0FE
:103B600024F943E0A9F10800041B39F8080C001BF4
:103B7000A0F10807BFB2AF4202DA0020BDE8F2832D
:103B8000BD4233D042F6200006EB0008404602F06A
:103B9000E7F8316839F8080C0B182A191879083237
:103BA00050B992B2B7681D8888189F4208BFB060AC
:103BB0000023037105800DE01435AF4213D392B298
:103BC000B3688818984238BFB0600023037139F891
:103BD000083C0380448029F8082C0088B0F5205F59
:103BE0001CBF891C0A52404602F0BFF84846BDE897
:103BF000F283F8B5070053D0C71C4FF6FC7007409E
:103C00000C2F0ED20C272B4D42F620002E183046DA
:103C100002F0A6F8AA682B68D11A89B2C7F5205E0F
:103C200004E0B7F5205FEED93AE0218871452FD244
:103C30005C1820790028F8D12088401A0838B8424A
:103C4000F3D307F1140C604516D37F180837BFB2C1
:103C5000D8194FF0000C80F804C0B4F800C0A0F8E8
:103C600000C041802780012121710088B0F5205FCC
:103C700004D01844478001E001202071944212D101
:103C80006968107970B18A420CD012881A44F8E73A
:103C900039B20FF28000FFF74FF8304602F065F8B6
:103CA0000020F2BDAA60304602F05FF804F108007F
:103CB000F2BD0000E46D00206D656D5F66726565A4
:103CC0002870203D3D204E554C4C292077617320B3
:103CD00063616C6C65642E0A000000006D656D5FA9
:103CE000667265653A20696C6C6567616C206D650C
:103CF0006D6F72790A0000006D656D5F7472696D99
:103D00003A20696C6C6567616C206D656D6F7279C6
:103D10000A0000006D656D5F6D616C6C6F633A2029
:103D2000636F756C64206E6F7420616C6C6F63617F
:103D30007465202568642062797465730A00000048
:103D4000002202F047B800002DE9F04782B0074694
:103D50000E4615460A99DDF82C800C98002207F1D2
:103D600028097A60BA60FA6089F80B201C4607F1CE
:103D7000240200231360032289F800203962FB61CA
:103D80002346DFF8E8A19AF8001089F80E102A46B9
:103D9000491C8AF8001038613146384600F051F865
:103DA0003846C04710B10020BDE8F687DAF80400B5
:103DB0003860CAF8047099F80D2099F80C100FF2C9
:103DC0005420FEF7B9FF0FF26C20FEF7B5FF26B9BD
:103DD000002000230022002103E0F078B3787278FD
:103DE00031780FF2582600903046FEF7A5FF0FF20B
:103DF0005C20FEF7A1FF25B900200023002200214E
:103E000003E0E878AB786A78297800903046FEF7CE
:103E100093FF0FF24420FEF78FFF24B90020002308
:103E20000022002103E0E078A378627821780090F6
:103E30003046FEF781FF4CA0FEF77EFF3846BDE816
:103E4000F687F8B505460C001CBF2068002816460A
:103E50001F460BD1284600F016F83146284600F0E0
:103E60005FF839462846BDE8F44046E0314628462A
:103E700000F056F83946284600F03FF8214628461B
:103E8000BDE8F440FFE730B50C0085B0054602D030
:103E90002068039002E036490A6803920398696833
:103EA000884219D00FF2B810FEF746FF03A9281D6B
:103EB00002F0ACFD03A9281DFEF7F3FC002C0CBF9B
:103EC00000202068686038B195F83310080703D5E2
:103ED000291D2846FFF725FAE979029105F13300FB
:103EE000A979019169790091827841782B790FF253
:103EF000A010FEF721FF05B030BD00B583B001B1C1
:103F00000968C16000F13401C27B0292827B019298
:103F1000427B00924A78037B09780FF2B01011E0DF
:103F200000B583B001B10968816000F13401C27A43
:103F30000292827A0192427A00924A78037A097850
:103F40000FF2C410FEF7F8FE03B000BD0749886009
:103F500010B92722272102E03430427801780FF28D
:103F6000E410FEF7E9BE00000A0000009CB7002044
:103F700008FD000890F83320D1070CD442F001026C
:103F8000510780F8332006D5416821B1120744BF9C
:103F9000011DFFF7C6B9704790F83310CA0707D55F
:103FA00001F0FE0180F83310090748BFFEF7CBBFD0
:103FB000704710B5044694F83300410718D440F018
:103FC000040084F833002046FCF790FD94F8331089
:103FD000C80707D5606828B1090703D5211D204609
:103FE000FFF79FF9E16919B12046BDE81040084785
:103FF00010BD00F11C01CA7D530706D502F0FB027B
:10400000CA750968002918BF0847704700B1C16127
:10401000704700006E657469663A20616464656487
:1040200020696E746572666163652025632563206F
:104030004950000020616464722000002568752EDC
:104040002568752E2568752E25687500206E6574A7
:104050006D61736B20000000206777200000000076
:104060006E657469665F7365745F697061646472BC
:104070003A206E65746966206164647265737320AA
:104080006265696E67206368616E6765640A000037
:104090006E657469663A2049502061646472657384
:1040A00073206F6620696E74657266616365202592
:1040B0006325632073657420746F202568752E2531
:1040C00068752E2568752E2568750A006E657469F9
:1040D000663A2047572061646472657373206F6687
:1040E00020696E74657266616365202563256320AF
:1040F00073657420746F202568752E2568752E25CC
:1041000068752E2568750A006E657469663A206EBA
:1041100065746D61736B206F6620696E746572667D
:1041200061636520256325632073657420746F20A7
:104130002568752E2568752E2568752E2568750AE3
:10414000000000006E657469663A207365747469D6
:104150006E672064656661756C7420696E74657243
:104160006661636520256325630A0000F0B4254C71
:10417000254A2078254B6FF0004150BB0820656828
:1041800003FB05250E46B5FBF6F601FB1655401E52
:104190006560F4D11E4D2E461020676803FB07278B
:1041A0008C46B7FBFCFC01FB1C77676046F8047B80
:1041B0008C4603FB0727B7FBFCFC01FB1C77676001
:1041C000401E46F8047BE8D1E86FC5F88000012066
:1041D0002070606803FB00220846B2FBF0F001FB90
:1041E00010210B4A616092F8803003F01F0352F8EF
:1041F0002300C2F8800042F8231020F04040F0BCB9
:1042000070470000D00000205FF36E3C0D6619007F
:10421000FCB40020C24318BF002810D091F833200E
:1042200093070ED54A6890420BD0896801EA0003D3
:104230000A40934202BFC9430840884201D101208D
:10424000704700207047102224492DE9FC41006886
:10425000009000230C466D46042001AF002695F81F
:1042600000C0DFF87CE08CFB0E8E4FEAAE0E0EEB4A
:10427000DE7E0EEB8E08ACEB480CF6B285F800E063
:104280000CF1300C07F806C0761C5FFA8EFEBEF10A
:10429000000FE4D15FFA86FCBCF1000F0CD0761E53
:1042A0009C460CF101039445BEBFF6B217F806C058
:1042B00004F801CBEEDB0EE01E46731C96420ADAD0
:1042C0006D1C2E26401E04F8016BC7D104F8010CAA
:1042D0000846BDE8F6810020BDE8F6817CB70020E5
:1042E0006766666681B00022ADF80020002310F0FA
:1042F000010206D0002904DD10F801CB8DF801C0C1
:10430000491E012905DD30F802CB891E01296344CD
:10431000F9DC0029C4BF00788DF80000BDF800105A
:10432000581881B201EB104188B200EB114032B154
:10433000020202F47F42C0F3072141EA020080B288
:1043400001B070472DE9F8430446884617461E46DB
:1043500000250FF220191DE0226821464846FEF78D
:10436000EBFC61896068FFF7BDFF301886B206EB91
:104370001046608900EBD0714908B0EB410008D0CD
:10438000300200F47F40C6F30721C5F1010541EA80
:1043900000062468002CDFD1EDB235B1310201F402
:1043A0007F41C6F3072040EA01064046FEF7C6FFFC
:1043B00034183846FEF7C2FF201881B201EB1041D5
:1043C0008CB204EB114421460FF2E400FEF7B4FC7A
:1043D000E443A0B2BDE8F2833CB41D68049C2B0CFE
:1043E00013FA85F5236815FA83F404EB1344A5B298
:1043F00005EB1445ABB203EB154302B030BCA1E7AB
:1044000010B582B0049C0094FFF7E6FF16BD80B59E
:10441000FFF768FFC04380B202BD70B504460025B7
:10442000002618E061896068FFF75CFF281885B2F4
:1044300005EB1045608900EBD0714908B0EB4100F5
:1044400008D0280200F47F40C5F30721C6F1010619
:1044500041EA00052468002CE4D1F6B236B1290205
:1044600001F47F41C5F3072040EA0105ED43A8B2FE
:1044700070BD0000696E65745F63686B73756D5F16
:1044800070736575646F28293A20636865636B7380
:10449000756D6D696E6720706275662025702028C5
:1044A000686173206E65787420257029200A0000E9
:1044B000696E65745F63686B73756D5F7073657546
:1044C000646F28293A207062756620636861696E9E
:1044D000206C7769705F63686B73756D28293D2563
:1044E000780A00002DE9F043954F83B0BE68054679
:1044F0003078800000F03C08B8F1140F894603DAE8
:1045000041460FF24020AAE06989042903D2298993
:104510000FF26420A3E0686801780A0000F0A78029
:10452000082940F09F80786900F0F001E02908BF79
:104530000FF2742062D03968FFF76CFE10B10FF2F1
:1045400094205BE00FF2B820FEF7F6FB28890828DC
:1045500038BF0FF2C02051D32846FFF75EFF20B1CD
:104560000FF2D420FEF7E8FB81E008F10E042146AB
:104570002846FFF748F8002831D029894144002215
:1045800089B20220FEF7F2FE040008BF0FF2DC2021
:1045900034D0608908F10801884238BF0FF2F42056
:1045A00012D360684246314601F05EFAC8F100015C
:1045B00009B22046FFF727F840B929462046FFF701
:1045C000A4F838B10FF2F420FEF7B6FB2046FFF74F
:1045D0001EF84CE02846FFF71AF8254606E064422C
:1045E00021B22846FFF70FF8002840D16C684146F9
:1045F0002846FFF708F820B10FF2E820FEF79CFBF1
:1046000035E06E687869F0604FF6F87238693061AD
:1046100000202070608890422CBF00F1090100F159
:1046200008016180FF2030724146002070813046D1
:10463000FFF7EDFE00217081009101200190CDF87F
:104640000890FF23002207F11401284600F07AFBAE
:1046500001000CD002F0FAFD01460FF2AC20FEF78B
:104660006BFB04E042780FF2D020FEF765FB284692
:1046700003B0BDE8F043FEF7CABF0A46032101E0DC
:104680000A460B212DE9F04305468846914685B040
:10469000002224210120FEF769FE040004D10FF25C
:1046A000CC20FEF749FB46E06F680FF200300FF2B6
:1046B0001836FEF741FBF87B0090BB7B7A7B397B99
:1046C0003046FEF739FB0FF21030FEF735FBF87C71
:1046D0000090BB7C7A7C397C3046FEF72DFB17A01E
:1046E000FEF72AFB666886F8008086F801900020B5
:1046F000B080F0801C2260686968083001F0B4F96D
:10470000F868039003A800F06BF9050010D00020B2
:10471000708030466189FFF77AFE00217080009139
:10472000012001900295FF2303AA204600F00AFB16
:104730002046FEF76CFF05B0BDE8F0830A000000DC
:1047400064B7002069636D705F696E7075743A209C
:1047500073686F72742049502068656164657220C7
:104760002825686420627974657329207265636501
:10477000697665640A00000069636D705F696E7038
:1047800075743A2073686F72742049434D50202825
:10479000256875206279746573292072656365697F
:1047A0007665640A0000000069636D705F696E7071
:1047B00075743A204E6F74206563686F696E672068
:1047C000746F206D756C7469636173742070696EA9
:1047D00067730A0069636D705F696E7075743A2063
:1047E0004E6F74206563686F696E6720746F206216
:1047F000726F6164636173742070696E67730A001D
:1048000069636D705F696E7075743A2070696E6768
:104810000A00000069636D705F696E7075743A20FC
:104820006261642049434D50206563686F20726562
:104830006365697665640A0069636D705F696E70AF
:1048400075743A20636865636B73756D2066616982
:104850006C656420666F7220726563656976656455
:104860002049434D50206563686F0A0069636D708D
:104870005F696E7075743A20616C6C6F6361746906
:104880006E67206E65772070627566206661696C60
:1048900065640A00666972737420706275662063CD
:1048A000616E6E6F7420686F6C6420746865204957
:1048B000434D5020686561646572000069636D70E6
:1048C0005F696E7075743A20636F7079696E6720E6
:1048D000746F206E65772070627566206661696C02
:1048E0006564000043616E2774206D6F7665206FEC
:1048F0007665722068656164657220696E207061FA
:10490000636B65740000000069636D705F696E70B1
:1049100075743A2069705F6F75747075745F69663D
:104920002072657475726E656420616E20657272A6
:104930006F723A2025730A0069636D705F696E704B
:1049400075743A2049434D5020747970652025686C
:104950006420636F646520256864206E6F74207323
:104960007570706F727465642E0A000069636D70F3
:104970005F74696D655F65786365656465643A2039
:104980006661696C656420746F20616C6C6F636133
:104990007465207062756620666F722049434D50C1
:1049A000207061636B65742E0A00000069636D708E
:1049B0005F74696D655F65786365656465642066CD
:1049C000726F6D20000000002568752E2568752E19
:1049D0002568752E2568750020746F200000000082
:1049E00070B5DFF87414096882B00568B1B191F848
:1049F000333003F00502052A0CD14A6852B18C68A5
:104A000004EA05062240964206D09A0702D4CA68F4
:104A1000954201D00968E9E7084676BDDFF83C1405
:104A2000096841B191F8332002F00502052A02D14C
:104A30004A68002AF0D1C1780091837842780178E1
:104A40000FF2FC40FEF778F9002076BD2DE9F04F1B
:104A5000054683B06F680FF210508946397809090E
:104A6000FEF76AF93878010904290AD00FF21850C4
:104A7000FEF762F9284600F0F9F92846FEF7C7FD6F
:104A8000FAE0800000F03C0841460FF23050FEF79B
:104A900053F97888FEF752FC04462889844203DAE9
:104AA00021462846FEF742FD68894045A2BF288975
:104AB000A042B8F1140F1BDAB8F1140F04DA414622
:104AC0000FF22450FEF738F96A89424504DA41466C
:104AD0000FF25850FEF730F92A89A24204DA214633
:104AE0000FF29850FEF728F92846FEF790FDC3E034
:104AF00041463846FFF78BFC78B141463846FFF710
:104B000086FC01460FF2B450FEF716F9284600F075
:104B1000ADF92846FEF77BFDAEE03869D04E7061F6
:104B2000F8683061307D00F0F000E0282DD199F870
:104B30003300C10727D5D9F8040020B34C46002C18
:104B40005ED1787A11285BD107EB080ABAF8020027
:104B5000FEF7F4FB01460FF20860FEF7EDF8BAF835
:104B60000200B0F5884F4BD10FF22460FEF7E4F855
:104B70004C46002C58D10FF26460FEF7DDF8284651
:104B8000FEF745FD78E00024DBE7CDF808904C46C1
:104B90000FF2585B4FF001093869D4F808C0626819
:104BA0000346014620EA0C0001900CEA03030CEADC
:104BB0000200009004F1330A5846FEF7BDF89AF857
:104BC0000000C1070CD5606850B17269824200F0E4
:104BD000AB8021461046FFF71DFB002840F0A48063
:104BE000B9F1000F02990FBF24684FF000099A48ED
:104BF00004688C4208BF2468002CCDD18946A0E708
:104C000030690028B5D04946FFF704FB20B9307C55
:104C100000F0F000E028ACD10FF29850FEF78CF8CD
:104C20002846FEF7F4FC27E0F8884FF63F7108426B
:104C300025D0FEF783FB8246F8880006400F00F07F
:104C4000010B7888FEF77AFBADF80800B888FEF70C
:104C500075FB4FEACA41090C0191CDF800B001463D
:104C6000BDF808302A890FF29450FEF765F82846FF
:104C700002F011FC050001D1002060E06F680FF226
:104C8000E050FEF759F8284600F0F0F82A896989C3
:104C90000FF2DC50FEF750F83460C6F80490B760AD
:104CA000C8F100013878800000F03C00B08109B202
:104CB0002846FEF7A8FC787A01280DD0062806D0F1
:104CC00011280ED149462846FDF74EFB24E04946FF
:104CD000284602F061FE1FE049462846FFF702FC25
:104CE0001AE070692146FFF795FA68B9307D00F047
:104CF000F000E02808D041462846FEF786FC6F60A9
:104D000002212846FFF7B9FC2846FEF780FC797A95
:104D10000FF28450FEF710F8002030607060B06031
:104D2000B081306170610AE0DDF808909AF80220E5
:104D30009AF801100FF2F830FDF7FEFFFFE603B01E
:104D4000BDE8F08F70B584B00C460A9E22B10029F0
:104D50001ABF09680029341D0999089D019102961E
:104D60000095214600F002F804B070BD2DE9F8432B
:104D70005FEA020806460D461C4644D01421FEF7A1
:104D800042FC38B10FF23450FDF7D6FF6FF001004E
:104D9000BDE8F2837768099808993C72787244EA12
:104DA0000024D8F800203A6145203870797014FA50
:104DB00082F4387804EB124440EA01200419308967
:104DC000FEF7BCFA788004EB00090020F880254C3F
:104DD0002088FEF7B3FAB88048442188491C218016
:104DE000002D06BF20490A682A68FA60F96810FA9F
:104DF00081F000EB114081B201EB104101EB114158
:104E0000C943798103E0716808690090E8460A9D0A
:104E100005F134008378427801780FF2D440FDF731
:104E20008BFF304600F022F8688D48B13189884206
:104E300006D242462946304602F02EFCBDE8F283F7
:104E40000FF2C440FDF778FF6B69424631462846B1
:104E50009847BDE8F2830000A0B70020A4B7002067
:104E600064B7002004B8002008FD00082DE9F043D5
:104E700083B044680FF2B8400FF2C045FDF75CFF05
:104E80002846FDF759FF6088FEF758FA2178009010
:104E900001F00F0263780FF2C8400909FDF74CFFDB
:104EA0002846FDF749FFE088FEF748FA0646E08805
:104EB000FEF744FA8146E088FEF740FA8046E08833
:104EC000FEF73CFA0746A088FEF738FAC9F34031EE
:104ED0000091C6F30C0601460196C8F38033FA0B25
:104EE0000FF2B840FDF728FF2846FDF725FF60893F
:104EF000FEF724FA0346627A217A0FF2DC40FDF7CE
:104F00001BFF2846FDF718FFE07B0090A37B627B28
:104F1000217B0FF20050FDF70FFF2846FDF70CFF35
:104F2000E07C0090A37C627C217C0FF21850FDF79E
:104F300003FF284603B0BDE8F043FDF7FDBE0000C7
:104F40006970345F726F7574653A204E6F20726FAE
:104F500075746520746F202568752E2568752E255B
:104F600068752E2568750A006964656E74696679CE
:104F70002074686520495020686561646572203A34
:104F8000202564200D0A00004950207061636B6584
:104F9000742064726F707065642064756520746F2E
:104FA000206261642076657273696F6E206E756D24
:104FB000626572202568750A0000000063616C63F9
:104FC000756C617465204950206865616465722064
:104FD0006C656E67746820696E20627974657320F1
:104FE0003A202564200D0A006970345F696E70757F
:104FF000743A2073686F7274204950206865616448
:10500000657220282568752062797465732920727D
:10501000656365697665642C204950207061636B17
:1050200065742064726F707065640A00495020686E
:10503000656164657220286C656E2025687529207D
:10504000646F6573206E6F742066697420696E20CA
:105050006669727374207062756620286C656E20B4
:10506000256875292C204950207061636B65742078
:1050700064726F707065642E0A0000004950202829
:105080006C656E2025687529206973206C6F6E67CA
:105090006572207468616E207062756620286C6588
:1050A0006E20256875292C204950207061636B653E
:1050B000742064726F707065642E0A0043686563C3
:1050C0006B73756D202830782568782920666169B2
:1050D0006C65642C204950207061636B657420649A
:1050E000726F707065642E0A0000000069705F695D
:1050F0006E7075743A2069706864722D3E646573D1
:10510000742030782578206E657469662D3E69704C
:105110005F616464722030782578202830782578A3
:105120002C20307825782C2030782578290A00002A
:105130006970345F696E7075743A207061636B6575
:1051400074206163636570746564206F6E20696E9E
:105150007465726661636520256325630A0000003B
:105160006970345F696E7075743A205544502070D0
:1051700061636B657420746F204448435020636CF6
:1051800069656E7420706F7274202568750A00005E
:105190006970345F696E7075743A204448435020DA
:1051A0007061636B65742061636365707465642E00
:1051B0000A0000006970345F696E7075743A20707F
:1051C00061636B657420736F75726365206973200A
:1051D0006E6F742076616C69642E0A006970345FAA
:1051E000696E7075743A207061636B6574206E6FC0
:1051F0007420666F722075732E0A0000495020706B
:1052000061636B6574206973206120667261676DEC
:10521000656E74202869643D3078253034687820C4
:10522000746F745F6C656E3D256875206C656E3DAE
:10523000256875204D463D256875206F6666736547
:10524000743D256875292C2063616C6C696E67203C
:105250006970345F726561737328290A0000000069
:105260006970345F696E7075743A200A000000003E
:105270006970345F696E7075743A20702D3E6C658C
:105280006E2025687520702D3E746F745F6C656E9E
:10529000202568750A000000556E737570706F7276
:1052A000746564207472616E73706F7274207072B2
:1052B0006F746F636F6C202568750A006970345FC6
:1052C0006F75747075743A206E6F7420656E6F75AB
:1052D000676820726F6F6D20666F7220495020687A
:1052E000656164657220696E20706275660A0000EF
:1052F0006970345F6F75747075745F69663A2025E4
:105300006325632568750A006970345F6F75747072
:1053100075745F69663A2063616C6C206E657469B0
:10532000662D3E6F757470757428290A00000000A0
:105330004950206865616465723A0A002B2D2D2D55
:105340002D2D2D2D2D2D2D2D2D2D2D2D2D2D2D2D8D
:105350002D2D2D2D2D2D2D2D2D2D2D2D2B0A0000FC
:105360007C25326864207C25326864207C202030D3
:10537000782530326878207C202020202025356850
:105380007520202020207C2028762C20686C2C2062
:10539000746F732C206C656E290A00007C2020201D
:1053A00020253568752020202020207C2568752543
:1053B00068752568757C202020202534687520209C
:1053C000207C202869642C20666C6167732C206F18
:1053D0006666736574290A007C2020253368752071
:1053E000207C20202533687520207C202020203040
:1053F00078253034687820202020207C2028747480
:105400006C2C2070726F746F2C2063686B73756DD9
:10541000290A00007C20202533687520207C20206C
:105420002533687520207C20202533687520207C5A
:1054300020202533687520207C2028737263290A78
:10544000000000007C20202533687520207C20206F
:105450002533687520207C20202533687520207C2A
:1054600020202533687520207C20286465737429EA
:105470000A000000C268002111608368C188DB1C3B
:105480009B089B0049B1D2F800C0C3F800C013606C
:10549000491EB0F804C06344F5D1704738B50FF227
:1054A000AC050D2455F8040BFFF7E4FF641EF9D199
:1054B00031BD70B5054600F06FFC0646E86804682B
:1054C00014B12168016009E029680FF25800FDF766
:1054D00033FC304600F069FC002070BD304600F01F
:1054E00064FC204670BD0D2801DB002070470FF2E0
:1054F0005C0151F82000DCE738B50C280C4605DCCF
:1055000024B10FF2480151F8205000E031BD00F005
:1055100043FCE9680A6822600C60BDE8324000F094
:1055200044BC00006D656D705F6D616C6C6F633ABB
:10553000206F7574206F66206D656D6F72792069BC
:105540006E20706F6F6C2025730A00008CF80008C5
:105550009CF80008ACF80008BCF80008CCF800087B
:10556000DCF80008ECF80008FCF800080CF900086A
:105570001CF900082CF900083CF900084CF9000857
:10558000002203F063BC00002DE9F04F93B0054604
:105590001C98DFF818828DF82F00914600201E46D7
:1055A000029108900FF29C4A4FF0FF370CE025283B
:1055B00010D019F8011B0298A8470028029000F0AB
:1055C000E0800898401C089099F800000028EED16F
:1055D0000898EDE00020002105900691079001E079
:1055E00041F0010119F8010F2028F9D023280DD02E
:1055F0002B2804D02D2806D030280AD0C3E041F053
:10560000020189B2EEE741F00401FAE741F0080136
:10561000F7E741F01001F4E700200A900AE00A9849
:10562000404505DA00EB800302EB4302303A0A9270
:1056300009F1010999F80020A2F130000A28EED3FF
:1056400099F800202E2A18BF099726D119F8010FC2
:105650002A2808D13068306009F1010950F8042B7C
:105660003060099219E02D280CBF19F8010B0020B9
:10567000002209920BE040B9099A424505DA02EB93
:10568000820403EB4403303B099309F1010999F8C3
:105690000030A3F130020A2AEDD3ADF82C105046A9
:1056A00099F8001003F002FC08B119F8010B8DF80D
:1056B0002E009DF82E00682804BF99F80010682974
:1056C00004D162208DF82E0009F101090CA8049084
:1056D000324619F8013B01A9284600F097F8002846
:1056E0004FD10A980599079A069C401A801A041B04
:1056F0009DF82C0041070FD42021002C8DF80010BC
:105700000ADDA34601236A4601A9284600F083F971
:10571000B8BBBBF1010BF5D1059B0CAA01A928462A
:1057200000F079F968BBDDF81CB03020BBF1000F48
:105730008DF8000009DD01236A4601A9284600F022
:105740006AF9F0B9BBF1010BF5D1069B039A01A9E7
:10575000284600F060F9A0B99DF82C0041077FF5BC
:1057600033AF2021002C8DF800107FF72DAF0123DF
:105770006A4601A9284600F04EF910B9641EF6D118
:1057800022E7384614E02A287FF446AF30683060BC
:1057900050F8042B3060002A0A9204D5524241F09E
:1057A00004010A9289B209F1010949E7CBCCCC0C7A
:1057B00013B0BDE8F08F62280ED0682819D1002AF6
:1057C0000A680A60106803D0121D0A6000B217E070
:1057D000121D0A6080B217E0002A0A680A60106889
:1057E00003D0121D0A6040B20AE0121D0A60C0B266
:1057F0000AE0002A0A680A60106803D0121D0A60D5
:10580000C1177047121D0A600021704770B51C4611
:105810000D46252CEE68114600F08480582C37D0B8
:10582000632C0ED0642C18BF692C14D06F2C2FD091
:10583000702C49D0732C53D0752C18BF782C27D0DE
:1058400076E02869421C2A610A680A6052F8043B23
:105850000A60335476E095F82A000122FFF7ABFF87
:105860000028286004D52869411C29612D210DE0FC
:10587000288D810704D52869411C29612B2105E069
:10588000C0071CD52869411C29612021315416E02C
:1058900095F82A000022FFF78EFF286095F828105F
:1058A00008070CD5286850B144F02001782906D1AA
:1058B000286930213154401C411C2961345421464F
:1058C00028693044A86007E00868086050F8042B95
:1058D00008602A60AE607821284600F035F831E093
:1058E0000868086050F8044B0860AC603CB90FF2DF
:1058F0005C1003F0E7FA4FF0FF34201A70BD2E6AF7
:10590000002E04D5204603F0FFFA044608E0324694
:105910000021204603F014FB002814BF041B34466A
:105920006C610FE02869411C29612521315409E08F
:105930002869411C296125223254200002D0481CCC
:1059400028617454002070BDF0B402466F29D368FA
:1059500008BF082605D041F02000782814BF0A2689
:10596000102618241768642918BF6929384602D1FF
:10597000002F48BF4042F0B9156AE5B9082E39D169
:1059800092F82800010735D530201724D87531E06A
:1059900000280ED592F8280000F01400102808D135
:1059A000536A10691B1A90691B1A591A0129A8BF5A
:1059B0009161F0BC7047B0FBF6F706FB1700303082
:1059C000641EC0B23A28A4BFA1F151052818185589
:1059D000380003D095681F19BD42ECD3082E09D1B9
:1059E00092F82800010705D5195D302902D0641E00
:1059F0003020185518199060C4F11801106A5161CF
:105A00008142C5DA411A91614FF6EF70118D014064
:105A10001185F0BC7047F8B505460E4617461C4682
:105A2000002074B117F8011B7068A847706030B18E
:105A3000F069401CF0610020641EF3D1F2BD4FF00C
:105A4000FF30F2BD686C747A4C0000007072696EB1
:105A500074665F733A206261642025732061726707
:105A6000756D656E7400000062B38B0708D0521E1E
:105A700011F8013B00F8013B00F024808B07F6D1C0
:105A8000830740F0208000BF103A07D330B4B1E85C
:105A90003810103AA0E83810F9D230BC530724BFB0
:105AA000B1E80810A0E8081044BF51F8043B40F8E2
:105AB000043BD20724BF31F8022B20F8022B44BF4D
:105AC0000B7803707047121F17D35B0009D151F890
:105AD000043B20F8023B1B0C121F20F8023BF6D2BD
